:020000040800F2
:1000000020040020FD200008F91F0008FB1F000845
:10001000FD1F0008FF1F000801200008000000006D
:10002000000000000000000000000000070A0008B7
:100030000320000800000000C10900080520000896
:100040002D21000831210008352100083921000840
:100050003D210008412100084521000849210008F0
:100060004D210008512100085521000859210008A0
:100070005D21000861210008652100086921000850
:100080006D21000871210008752100080920000871
:100090000B20000813200008152000087921000813
:1000A0007D210008812100088521000889210008A0
:1000B000172000088D2100089121000895210008D3
:1000C000992100089D210008A1210008A521000810
:1000D000A9210008AD210008B1210008B5210008C0
:1000E000B9210008BD210008C12100082DE9F04315
:1000F0000446154685B088469946A80000F092FA55
:1001000006001AD0542000F08DFA070012D03E638A
:100110000020039002974B460D9801902A460C98B8
:1001200000904146204600F00DF8384600F046F8B1
:10013000012004E0304600F0FBFA4FF0FF3005B03C
:10014000BDE8F0832DE9F8430A9C8046206B00EB64
:100150008200001FC708FF00994607F007000A5CED
:10016000231883F834200A5C12B1401C1028F6D3FF
:10017000002084F8430004F14405089E072E28BFA0
:100180000626E6622E606860201D00F032FB04F156
:10019000180000F02EFBC6F10700A0612461646224
:1001A0000020A86028734A464146384600F05CFBB0
:1001B0002060099800B10460BDE8F1832DE9F041A9
:1001C000044600F0A7FBDFF8D853DFF8D883E86CCB
:1001D000401CE8641426A86A28BBAC62E86C0128BD
:1001E00027D1002706FB07F0404400F0F5FA7F1CFA
:1001F000072FF7D305F1740000F0EEFA05F1880738
:10020000384600F0E9FA284600F0E6FA05F1140055
:1002100000F0E2FA05F1380000F0DEFA05F17400B2
:10022000E8622F6305E0A86D18B900F02FF828BF29
:10023000AC62A86E401CA8660121686DE26A91401C
:1002400008436865211DE06A7043404400F0D4FA19
:1002500000F079FBA86D18B1A86AE16A00F092F984
:10026000BDE8F08110B504000DD0DFF8A403006FE5
:1002700000F0EFF800F03AF80021204600F094F981
:1002800000F03AF808B900F073F910BDE06AA96A05
:10029000C96A884270471CB5DFF874430FF27C319D
:1002A00004F19C00019000230020009080220FF2B6
:1002B0002520FFF71BFF502101280FD181F3118862
:1002C00000F05BF94FF0FF30E0660120A0650020F0
:1002D0002065BDE8134000F0EBBA13BD10F1010F2B
:1002E000FBD181F3118800F048F9FEE7DFF8200325
:1002F000016F491C0167704770B500F0E3F80026F4
:10030000002400F041F800F005FB286F401E28672C
:10031000286F002837D1E86CE0B934E0E868C66897
:1003200006F1180000F08DFA301D00F08AFA686DB1
:10033000F26A00F0C1F8F26ADFF8D8025A43311DC0
:10034000104400F059FAF06AA96AC96A884224BFC9
:100350000120286628680028E0D10EB100F0EEF8F0
:10036000EE6D3EB100F01AF808B101202866761E45
:10037000F8D1EC65286E30B1DFF89C124FF0805058
:10038000012400F0F9F8A1E038B9502080F3118879
:10039000BFF34F8FBFF36F8FFEE770472DE9F84330
:1003A00000F090F8002400284AD1286D10F10109CE
:1003B000C5F850900CD1E86A006800F04AF8E86A85
:1003C000296BE9622863686E401C686600F0B6F825
:1003D000E86EDFF840821427814528D31AE0301DEB
:1003E00000F02FFAB06A18B106F1180000F029FAEF
:1003F000686DF26A0121914008436865311DF06A19
:100400007843404400F0F8F9F06AA96AC96A884262
:1004100028BF0124E86A006810B94FF0FF3005E0FA
:10042000E86AC068C66870688145D8D2E866A86A7C
:10043000C06A784358F80000022804D3012402E07F
:10044000E86D401CE865286E00B101242046BDE837
:10045000F28338B1502080F31188BFF34F8FBFF380
:100460006F8FFEE77047DFF83801016F11B101218E
:100470000166704701661422416DB1FA81F1C1F144
:100480001F015143DFF88C2153583BB9502080F3B2
:100490001188BFF34F8FBFF36F8FFEE7114401F157
:1004A00008034A6852684A609A4204BF52684A6028
:1004B0004968C968816270470121914008436865B5
:1004C00014237047DFF84851286F704700F03BFA5B
:1004D000204670BD70B5DFF8CC40DFF834511AE02B
:1004E000FFF704FF6869461EB641FFF705FFF60FE8
:1004F0008EB900F00FFA286AC668301D00F0A1F925
:10050000E86C401EE864686B401E686300F01BFAEC
:10051000304600F009F8686B0028E1D12068022815
:10052000F9D300F025F8F6E710B50446206B00F08B
:10053000FFF82046BDE8104000F0FAB8DFF8D00020
:10054000C16A096811B94FF0FF3103E0C16AC96897
:10055000C9684968C1667047DFF8B400816D09B9A0
:1005600001207047006F00280CBF02200020704758
:10057000DFF8A4104FF080500860BFF34F8FBFF337
:100580006F8F7047C06A884207D223494FF080506E
:100590000860BFF34F8FBFF36F8F704700000000FC
:1005A00038100020D8100020F8B5194C256D0646EB
:1005B000A06A0F46001D00F044F940B9A06A616DC1
:1005C000C06A012202FA00F021EA0000606516F11B
:1005D000010F08D13FB1A06A011D04F13800BDE848
:1005E000F44000F009B9A06A76194660AE42A06AEC
:1005F00005D2011D206BBDE8F44000F009B9011DD2
:10060000E06A00F005F9E06E864238BFE666F1BDAB
:1006100038100020D810002004ED00E049444C457B
:10062000000000002DE9F8430446FFF75FFE694F24
:10063000B8680025A94608BB07F1180307F118029E
:1006400013F007034FF44061104605D0D01DC008D9
:10065000C000C0F54061511809180839C908C9001F
:1006600038607D60B9604D600D600A1A42600160BB
:1006700040683861F8604FF0004078614FF05008F2
:100680007869044242D1002C40D0083414F0070F9E
:100690001FBF04F1080004F00701441A14F0070F0B
:1006A00000F03DF894B3F868A0422FD33E68384676
:1006B00001E030460E467168A14202D2316800293D
:1006C000F7D1B9688E4221D0016801F1080531687F
:1006D00001607068011B112908D3301910F007025E
:1006E00000F01DF84160746000F050F8F86871681F
:1006F000401A3969F860884238BF38617068796992
:1007000008437060C6F8009005F00709FFF7F4FD94
:10071000B9F1000F00F003F82846BDE8F28306D0D7
:1007200088F31188BFF34F8FBFF36F8FFEE77047D9
:1007300038B5040022D0274D54F8041C68695022B3
:10074000014202D100F01BF8FEE754F8083C13B157
:1007500000F015F8FEE721EA000044F8040CFFF76A
:10076000C5FDE86854F8041C0818E860A4F1080006
:1007700000F00CF8BDE83140FFF7BEBD31BD82F39B
:100780001188BFF34F8FBFF36F8F704730B511499A
:100790000A4600E01A4613688342FBD35368D41814
:1007A000844203D14068C018506010464368146802
:1007B000C518A54208D189688C4204D06168C9185F
:1007C0004160246800E00C460460824218BF10605B
:1007D00030BD00002004002000F1080141604FF00E
:1007E000FF31816000F10801C160016100210160F9
:1007F000704700210161704742684A6093688B60CE
:1008000093685960916008610168491C01607047F4
:1008100030B50A6812F1010F08BF036907D000F173
:10082000080300E023465C682568AA42FAD25A68A9
:100830004A6091608B60596008610168491C0160E1
:1008400030BD4368016982689A60836842685A6073
:100850004A68824204BF82684A60002202610868D6
:10086000401E086070470000490810B54900A0F11B
:100870000C034FF0807459609C600FF20D011960F9
:1008800040F8202D203810BD47494968502011F10B
:10089000010F06D080F31188BFF34F8FBFF36F8F26
:1008A000FEE780F31188BFF34F8FBFF36F8FFEE732
:1008B0001CB53E483C4C01780191FF210170017844
:1008C0008DF800109DF8001001F0500121700721F3
:1008D00005E09DF800205200491E8DF800209DF88B
:1008E00000201206F5D4090201F4E061A16001992B
:1008F00001702F48016841F470010160016841F006
:100900007041016000F044F80020606000F08BF856
:10091000002016BD502080F31188BFF34F8FBFF326
:100920006F8F21494A68521C012A4A600AD1214925
:100930000968090606D080F31188BFF34F8FBFF313
:100940006F8FFEE770471848416839B9502080F32F
:100950001188BFF34F8FBFF36F8FFEE7491E4160D1
:1009600004BF002080F31188704780B5502080F3C9
:100970001188BFF34F8FBFF36F8FFFF70FFD18B1D3
:100980000C494FF080500860002080F3118801BDB1
:1009900009490A4809684FF47A72B1FBF2F1491E1D
:1009A00041600721016070470000002000E400E082
:1009B00020ED00E004ED00E01800002010E000E071
:1009C000EFF30980BFF36F8F1D4B1A6820E9F00F1A
:1009D000106008B54FF0500080F31188BFF34F8FBF
:1009E000BFF36F8FFFF73FFD4FF0000080F31188DA
:1009F000BDE8084019680868B0E8F00F80F309887E
:100A0000BFF36F8F70470E4B19680868B0E8F00F9E
:100A100080F30988BFF36F8F4FF0000080F31188D7
:100A20004EF00D0E704707480068006880F3088894
:100A300062B661B6BFF34F8FBFF36F8F00DF000068
:100A40006010002008ED00E02DE9F8430446DFF8CF
:100A500094542078C00747D5686800F00C0004283B
:100A600007D0686800F00C0008280AD16868C00345
:100A700007D52868800337D56068002834D1012065
:100A80004BE16068B0F5803F09D008B928680AE0FA
:100A9000B0F5A02F286806D140F48020286028688F
:100AA00040F4803005E020F480302860286820F48D
:100AB00080202860606858B100F04AFA074628682C
:100AC000800311D400F044FAC01B6528F7D321E15C
:100AD00000F03EFA07462868800305D500F038FA92
:100AE000C01B6528F7D315E12078DFF80464800780
:100AF00019D5686810F00C0F07D0686800F00C007A
:100B0000082826D16868C00323D42868800702D546
:100B100020690128B3D128686FF0F80108406169A5
:100B200040EAC1002860207800073ED5A169DFF8BF
:100B3000C403002965D00121016000F009FA0746CD
:100B4000686A800722D400F003FAC01B0328F7D399
:100B5000E0E0206968B10120306000F0F9F9074653
:100B600028688007D7D400F0F3F9C01B0328F7D317
:100B7000D0E0306000F0ECF9074628688007D2D555
:100B800000F0E6F9C01B0328F7D3C3E0DFF85803F1
:100B90000068C0084FF47A71B0FBF1F0009000BF1C
:100BA0000098411E00280091F9D12078400770D5A7
:100BB000E869C0004FF000080AD4E86940F08050AE
:100BC000E8614FF00108E86900F08050009000985B
:100BD000DFF82493D9F80000C0051FD4D9F800002D
:100BE00040F48070C9F8000000F0B2F90746D9F867
:100BF0000000C00512D400F0ABF9C01B6528F6D385
:100C000088E0016000F0A4F90746686A8007CCD547
:100C100000F09EF9C01B0328F7D37BE0E0680128B1
:100C200008D008B9286A09E00528286A06D140F0EA
:100C300004002862286A40F0010006E040084000F5
:100C400028626FF00401286A0840286241F289395D
:100C5000E06858B100F07CF90746286A800711D493
:100C600000F076F9C01B4845F7D353E000F070F967
:100C70000746286A800705D500F06AF9C01B484579
:100C8000F7D347E0B8F1000F03D0E86920F08050B7
:100C9000E861E06900283FD0696801F00C0108298B
:100CA0003FF4EDAE02282AD100F039F80746286853
:100CB000800105D500F04CF9C01B0328F7D329E0CB
:100CC000206AB0F5803F05D16868A16820F4003043
:100CD000084368606868216A20F474100843616AF8
:100CE00008436860012000F01BF80746286880016F
:100CF00012D400F02DF9C01B0328F7D30AE000F04E
:100D00000EF807462868800106D500F021F9C01BBF
:100D10000328F7D3032000E00020BDE8F283002081
:100D2000306600F015B92DE9F843744E044630687A
:100D3000884600F00700404502D200F07AF853D10F
:100D40002078684F800706D578686FF0F00108407A
:100D5000A168084378602078C0073DD56068012805
:100D600002D13968890303E00228396802D1890178
:100D700002D439E0890737D57968890840EA8100CB
:100D8000786041F2893900F0E3F80546606801288F
:100D90000AD1786800F00C0004281DD000F0D8F8C3
:100DA000401B4845F5D315E002280AD1786800F0C9
:100DB0000C00082810D000F0CBF8401B4845F5D3B4
:100DC00008E0786810F00C0F06D000F0C1F8401B66
:100DD0004845F6D303202AE0306800F0070080453C
:100DE00004D200F026F801D0012020E0207840074E
:100DF00005D57868E16820F4E060084378602078E1
:100E0000000706D57868216920F4605040EAC100E7
:100E1000786000F018F87A683949C2F30312895CE7
:100E2000C84031490860002000F09AF80020BDE871
:100E3000F2833068C00848EAC0003060306800F0D3
:100E400007004045704710B586B001A80FF2C001F9
:100E5000102200F0C1F80FF2C8002A490088ADF84E
:100E600000000A68214802F00C03082B10D101ABE6
:100E7000C2F38344D2031B5D08D50968C1F3404126
:100E800058431DF80110B0FBF1F001E01E48584333
:100E900006B010BD1448006870471348194A00682E
:100EA00012681A49C2F30222FFE7895CC840704702
:100EB0000F220260134A136803F0030343601368B0
:100EC00003F0F0038360136803F4E063C360126807
:100ED000D20802F4E06202610848006800F00700EE
:100EE00008607047001002401800002000127A00CD
:100EF0000000424280044242007000400020024054
:100F0000A81F00080410024000093D002421000829
:100F100002030405060708090A0B0C0D0E0F10103A
:100F20000102000080B50C48016841F01001016029
:100F3000032000F08AF8002000F012F800F0E4F836
:100F4000002002BD05484168027851184160704791
:100F50000248406870470000002002400C0000205A
:100F600010B5014688B000221C2000F07BF81C2040
:100F700000F095F81548164C016841F00101016038
:100F800001A9006800F001000090009802A8FFF796
:100F90008FFFFFF782FF4FF080412160400040F259
:100FA000E731E1600B49B0FBF1F0401E60600020CA
:100FB0002061A060204600F06BF918B9204600F0CF
:100FC00075F900E0012008B010BD00001C100240BF
:100FD000EC11002040420F00103A07D330B4B1E8C2
:100FE0003810103AA0E83810F9D230BC530724BFAB
:100FF000B1E80810A0E8081044BF51F8043B40F8DD
:10100000043BD20724BF31F8022B20F8022B44BF47
:101010000B7803707047083A07D3B1E80810083A14
:1010200040F8043B40F804CBF7D25307E4E7000054
:101030000901002806D52E4A00F00F00104400F8E0
:10104000041C70472B4A115470472B490A684FF60D
:10105000FF0300021A4000F4E0601043274A1043E7
:101060000860704738B5244B1B68C3F30223C3F1F3
:101070000704052C28BF04241D1D072D34BF0023A1
:10108000DB1E012505FA04F4641E2140994005FA8F
:1010900003F35B1E1A401143BDE83440C8E7012149
:1010A00000F01F029140164AFFE7400942F8201065
:1010B000704710B5401EB0F1807F01D3012010BDF4
:1010C000104C60600F214FF0FF30FFF7B1FF0020A0
:1010D000A06007202060002010BD0A49042808688D
:1010E0000EBF40F004006FF004021040086070472B
:1010F00018ED00E000E400E00CED00E00000FA056F
:1011000000E100E010E000E080B55A48016841F0DD
:1011100001010160016801F001010091009941683D
:1011200041F080514160406800F08050009000988C
:101130000320FFF78AFF002200216FF00B00FFF76A
:1011400091FF002200216FF00A00FFF78BFF0022C1
:1011500000216FF00900FFF785FF002200216FF0EA
:101160000400FFF77FFF002200216FF00300FFF76C
:1011700079FF00220F216FF00100FFF773FF0022BB
:101180000F214FF0FF30FFF76DFF3B48016821F062
:10119000E06141F00071016001BD0068374988429B
:1011A00000D0704710B53648364C86B0016841F023
:1011B0000071016001A9006800F0007000900098C3
:1011C0004FF400600190002002900390204600F050
:1011D00083FA4FF48050019001A90220029003206D
:1011E0000490204600F078FA002205211320FFF732
:1011F00039FF1320FFF753FF002205211420FFF7CA
:1012000031FF1420FFF74BFF002205211520FFF7C7
:1012100029FF1520FFF743FF002205211620FFF7C5
:1012200021FF1620FFF73BFF06B010BD81B000681C
:101230001549884209D11248016841F00401016052
:10124000006800F004000090009801B0704700684A
:101250000D49884200D0704700B585B04FF47070DA
:1012600000906946022001900390084800F034FA8B
:1012700005B000BD181002400400014000640040A9
:101280001C1002400008014000080040000C014012
:1012900038B5040001D1012032BD00F029F818B999
:1012A0002870204600F001F80BE070470068C16824
:1012B00041F00101C160016841F0010101600020BD
:1012C000704702206870211D206800F029F9012074
:1012D0006870002032BD38B5040001D1012032BD54
:1012E00000F006F818B928702046FFF79FFFE8E7DE
:1012F00004F13C056878704710B504462068016920
:10130000890716D5C168890713D56FF002010161FD
:1013100001212177806910F0030F204602D000F0F0
:10132000FCF804E000F0F8F8204600F0F7F80020A0
:10133000207720680169490716D5C168490713D588
:101340006FF00401016102212177806910F4407F70
:10135000204602D000F0E1F804E000F0DDF820467D
:1013600000F0DCF80020207720680169090716D515
:10137000C168090713D56FF00801016104212177C5
:10138000C06910F0030F204602D000F0C6F804E058
:1013900000F0C2F8204600F0C1F800202077206855
:1013A0000169C90616D5C168C90613D56FF01001C9
:1013B000016108212177C06910F4407F204602D0E6
:1013C00000F0ABF804E000F0A7F8204600F0A6F823
:1013D0000020207720680169C90708D5C168C907BE
:1013E00005D56FF001010161204600F02AFB20685D
:1013F0000169090608D5C168090605D56FF08001A5
:101400000161204600F056FB20680169490608D5B5
:10141000C168490605D56FF040010161204600F022
:101420007EF82068016989060AD5C168890607D552
:101430006FF0200101612046BDE8104000F039BB8B
:1014400010BD70B5064606F13C040D462078012813
:1014500001D1022070BD00F05AF832B1042A17D031
:10146000082A29D00C2A3AD04CE0306800F08AF8DB
:101470003068816941F0080181616FF004023068D1
:10148000816911408161306881692A69114311E0E5
:10149000306800F09DF83068816941F40061816135
:1014A0003068816921F480618161306881692A69CD
:1014B00041EA0221816125E0306800F0B6F8306829
:1014C000C16941F00801C1616FF004023068C1696F
:1014D0001140C1613068C1692A69114311E0306867
:1014E00000F0D2F83068C16941F40061C161306830
:1014F000C16921F48061C1613068C1692A6941EA2A
:101500000221C161012060700020207070BD0120A7
:1015100020700220607070477047704770477047B6
:1015200070B5694A0368694C694D904218BFB0F1C3
:10153000804F03D0A84218BFA0420AD16FF07006B6
:1015400033404E68334390421CBFB0F1804FA842F5
:1015500001D0A04203D1CC6823F4407323436FF041
:10156000800423404C692343036090428B68C3622C
:101570000B68836202D10969564A116001214161F9
:1015800070BD000030B5026A5208520000F076F8D3
:1015900083692B400D682B436FF002052C408D684A
:1015A0002C4300F068F80DD16FF008052C40CD6891
:1015B0002C436FF004052C404D6922F440722A43FD
:1015C0008D692A434260836149684163046230BD8A
:1015D00070B5026A6FF010031A400262046A426832
:1015E00083690D6823F4E64343EA05236FF0200581
:1015F0002C408D6844EA051400F03DF80FD16FF0DF
:1016000080052C40CD688E6944EA05146FF04005D2
:101610002C404D6922F44062354342EA8502426023
:10162000836149688163046270BD70B5026A22F407
:10163000807200F023F8C3692B400D682B438D683E
:1016400024F4007444EA052400F015F80DD1CD68A7
:101650008E6924F4006444EA05244D6922F4405262
:10166000354324F4806442EA05124260C36149684C
:10167000C163046270BD144DA842704702626FF0EE
:101680007305046A4268704730B5026A22F48052DA
:101690000262026A4368C4690D6824F4E64444EABD
:1016A00005248D6822F4005242EA0532FFF7E3FF79
:1016B00004D14D6923F4804343EA85134360C46138
:1016C00049680164026230BD002C014000080040FE
:1016D00000040040302C01402DE9F8474FF0000E87
:1016E00000225A4BDFF86881DFF868914FF00F0A4B
:1016F000012707FA02F60F683740B74240F0A08092
:101700004C685CB3012C1AD0022C1FD0032C31D0B2
:10171000112C17D0122C1DD04F4DAC421CBF4F4D79
:10172000AC421BD04E4DAC421CBF4E4DAC4215D00E
:101730004D4DAC421CBF4D4DAC420FD01CE0D1F81A
:101740000CE019E0CC6804F1040E15E0CC6804F15B
:10175000080E11E0CC6804F10C0E0DE08C6814B991
:101760004FF0040E08E0012C4FF0080E14BF466144
:10177000066101E04FF0000EFF2F02D8844694006E
:1017800004E0A2F1080400F1040CA400DCF800500D
:101790000AFA04F6B5430EFA04F42C43CCF80040E0
:1017A0004C68E4004CD5D9F8004044F00104C9F875
:1017B00000404FEA920CD9F8005005F00104009463
:1017C000009C58F82C50940004F00C040AFA04F61B
:1017D000B543274EB04208BF00260ED0254EB0427A
:1017E00008BF012609D0244EB04208BF022604D00B
:1017F000224EB0420CBF0326042606FA04F42C4302
:1018000048F82C40FD434C68E4031C684CBF3C4343
:101810002C401C604C68A4035C684CBF3C432C40CB
:101820005C604C68E4029C684CBF3C432C409C606C
:101830004C68A40247BFDC682743DF682F40DF60A5
:10184000521C102AFFF454AFBDE8F1870004014098
:101850000800014018100240000011100000121092
:101860000000211000002210000031100000321092
:1018700000080140000C014000100140001401402C
:1018800010B58AB0FFF74EFB00F052F86248634C87
:10189000016841F020010160016801F02001009120
:1018A0000099016841F004010160016801F0040140
:1018B00000910099016841F00801016001A90068E8
:1018C00000F008000090009840F2016001900020B4
:1018D000029003905248FFF7FFFE5248206012200A
:1018E00060600020A060E0604FF4402020614FF471
:1018F000801060610020A0610120E06120626062D0
:101900000020A062E062204600F0D6F800B1FEE7B9
:1019100000F048F805A80FF238111422FFF75CFB1D
:10192000002105A800F0F3FA606400F0EBFAFEE78E
:1019300000B58FB001200590002107914FF4803051
:10194000069001210D9009914FF4E01002210E90B4
:101950000C9105A8FFF778F800B1FEE70F20009082
:10196000022102200190002002904FF48060039039
:10197000002004906846FFF7D6F900B1FEE7FFF7B4
:1019800089FA4FF47A71B0FBF1F0FFF792FB042073
:10199000FFF7A3FB00220F214FF0FF30FFF762FBA0
:1019A0000FB000BD204810B5204C206000206060C2
:1019B000A0608AB042F6DF60E06000202061A06194
:1019C0002046FFF788FC00B1FEE7009001906946D1
:1019D000204600F047F800B1FEE7602002900022A8
:1019E000002003900490069000F022F800B1FEE77A
:1019F000042200F01DF800B1FEE7082200F018F8FC
:101A000000B1FEE70C2200F013F800B1FEE720461B
:101A1000FFF71DFC0AB010BD181002406411002031
:101A2000000801400064004000080040AC110020A4
:101A300002A92046FFF705BD80B5012000F07DFA20
:101A4000FBE70068B0F1804F08BFFFF77BBA704733
:101A50000C210008391A00080000000000000000F6
:101A60008000000030B500F13C021378012B01D159
:101A7000022030BD012313706FF0700502235370F4
:101A800003685C682C405C6003685C680D682C43EC
:101A90005C606FF0800503689C682C409C60006867
:101AA00083684968194381600120507000201070DC
:101AB00030BD704770470000F8B504460026002C82
:101AC00072D004F13C05287818B968702046FFF7F9
:101AD00064FB022028706FF0020220680168114048
:101AE00001602068016841F001010160FFF730FAF0
:101AF000074620684168C90705D4FFF729FAC01BCB
:101B00000B28F6D342E04168C9074BD5A1690129EA
:101B1000E16908BF80260129216A08BF46F0400616
:101B20000129616A08BF46F020060129A16A08BFA1
:101B300046F010060129E16A08BF46F008060129AF
:101B4000016808BF46F004066FF0FC021140314303
:101B50000160A068E168084321690843616908439E
:101B60006168491E08432168C86120680168490806
:101B700049000160FFF7ECF9074620684168C90792
:101B800007D5FFF7E5F9C01B0B28F6D300F00EF8D8
:101B9000F2BD4068C00705D40020686001202870AD
:101BA0000020F2BD042028700120F2BD032028701F
:101BB0000020687003207047F8B5044600202268B2
:101BC000D368002100255669DB0605D5330703D508
:101BD00010234FF40075D360226813695669DB0641
:101BE00005D5730603D5102345F48065136104F110
:101BF0003C0622685369DB0748D597686A4B1F404B
:101C00009F429768674B08BF01201F409F4297681B
:101C1000634B08BF01211F409F420CBF01230023DB
:101C20000843184332D0906891684008490A00F090
:101C3000010001F001010843916801F0010108432E
:101C40001DD050694008400050613078122804D1FE
:101C50002068416921F40F4141613078422808D061
:101C6000522804D072280CBF6220012002E03220EA
:101C700000E022203070204600F0A0F801E045F49A
:101C800000652068494A8168114381602068C16805
:101C9000406911F0030105D0800703D500212046DB
:101CA00000F08FF820680169406911F0030105D048
:101CB000C00603D50121204600F083F87068284350
:101CC0007060206800F076F8C90707D5D10505D502
:101CD000190403D5716841F00101716000F06AF8E0
:101CE000890707D5910505D5190403D5716841F019
:101CF0000201716000F05EF8490707D5510505D56E
:101D0000190403D5716841F00401716000F052F8C4
:101D100001F07001491E8941C90F30D111052ED53E
:101D200019042CD5816901F0700110290AD02029ED
:101D30000CD030290ED0402910D0502912D0602963
:101D400014D017E0716841F0080112E0716841F0A9
:101D500010010EE0716841F020010AE0716841F065
:101D6000400106E0716841F0800102E0716841F4D1
:101D70008071716081696FF07002114081617068DB
:101D800060B121680A4A0420486001203070206850
:101D9000416911404161204600F012F8F1BD000098
:101DA0000000011000010008010000040905010005
:101DB000A470FFFF816942694369704770477047AB
:101DC000704738B504680A0004EB01140CBF426B7D
:101DD000826BD4F8B04114F004049460056805EBFC
:101DE0000115D5F8B04107BF640D1460E4085460D4
:101DF000046804EB0114D4F8B04104F00204D46088
:101E000000F068F8116204F00F04146100F062F849
:101E1000C4F30724D46100F069F8147500F066F883
:101E2000240A547500F062F8240C947500F05EF8F2
:101E3000240ED47500F054F8147600F051F8240AFA
:101E4000547600F04DF8240C9476046804EB0113EA
:101E5000D3F8BC311B0ED3760B00026804D12023CB
:101E6000D3606FF00A0403E0202313616FF0500485
:101E7000026853692340536190F83C20222A18BF1E
:101E8000322A04D10268536923F40F4353610029B5
:101E900090F83C100AD142290FD0622902D0722951
:101EA00002D010E032210FE052210DE0522904D07F
:101EB000622904D0722904D005E0122104E0222115
:101EC00002E0422100E0012180F83C10FFF777FF9B
:101ED000002032BD046804EB0114D4F8B44170470B
:101EE000046804EB0114D4F8BC417047046804EBA7
:101EF0000114D4F8B84170470021842818BFC11CD0
:101F00000846704780B5FEF7C6F9002002BD3EB511
:101F100004460D46B4F90800FFF7EEFF02A901914F
:101F200000902B4622692168606892B2FEF7DEF8C5
:101F3000012814BF002002983EBD80B500B90120E1
:101F4000FEF790F9002002BD80B5FEF705FB0128E1
:101F50001CBFBDE80140FEF708BD01BD0E480F4A99
:101F6000016841F0010101604168114041600C4A83
:101F7000016811400160016821F48021016041681D
:101F800021F4FE0141604FF41F0181604FF00060B9
:101F90000449086070470000001002400000FFF88C
:101FA000FFFFF6FE08ED00E000000000000000006A
:101FB000010203040607080919E050F8041BCB07C7
:101FC00044BFA9F101035918121F0023042A41F844
:101FD000043BF9D25FEA827C0B4604D54FF0000C3B
:101FE000A1F800C09B1CD10744BF0021197050F814
:101FF000042B002AE1D170477047FEE7FEE7FEE7B9
:10200000FEE77047FFF7A0BF00E000BF0348FFF7FF
:10201000D3BDFBE7FAE70248FFF76EB96411002071
:10202000EC11002010B450F8041B79B10268436829
:1020300002440830DC0744BFA9F10104E31852F858
:10204000044B43F8044B091FF9D1ECE710BC70476F
:1020500010B5074979441831064C7C44163404E025
:102060000A68081D114488470146A142F8D110BDF5
:10207000080000002800000041FFFFFF0C0E0000D8
:1020800020040020000000009DFFFFFF1C00000056
:102090000C00000000000020000000000000000014
:1020A000AAAAAAAA00000000010000000000000087
:1020B0001000000000A24A0400F00BF8002801D034
:1020C000FFF7C6FF0020C046C046FFF7D9FB00F06F
:1020D00002F80120704700F001B8000007463846BA
:1020E00000F002F8FBE7000080B5C046C046024A97
:1020F00011001820ABBEFBE7260002000148804714
:10210000014800475D1F00081921000864656661E9
:10211000756C745461736B00C046C046C046C046BF
:10212000FFF7CAFF0000000001020304FFF7FEBF33
:10213000FFF7FEBFFFF7FEBFFFF7FEBFFFF7FEBFD3
:10214000FFF7FEBFFFF7FEBFFFF7FEBFFFF7FEBFC3
:10215000FFF7FEBFFFF7FEBFFFF7FEBFFFF7FEBFB3
:10216000FFF7FEBFFFF7FEBFFFF7FEBFFFF7FEBFA3
:10217000FFF7FEBFFFF7FEBFFFF7FEBFFFF7FEBF93
:10218000FFF7FEBFFFF7FEBFFFF7FEBFFFF7FEBF83
:10219000FFF7FEBFFFF7FEBFFFF7FEBFFFF7FEBF73
:1021A000FFF7FEBFFFF7FEBFFFF7FEBFFFF7FEBF63
:1021B000FFF7FEBFFFF7FEBFFFF7FEBFFFF7FEBF53
:0421C000FFF7FEBF68
:0400000508002119B5
:00000001FF
