:020000040800F2
:10000000100400205D340008993200089B3200087B
:100010009D3200089F320008A13200080000000055
:10002000000000000000000000000000EF310008A8
:10003000A332000800000000A9310008A532000822
:10004000AD340008B1340008B5340008B9340008F4
:10005000BD340008C1340008C5340008C9340008A4
:10006000CD340008D1340008D5340008D934000854
:10007000DD340008E1340008E5340008E934000804
:10008000ED340008F1340008F5340008AD32000802
:10009000B7320008C1320008CB320008F93400083A
:1000A000FD34000801350008053500080935000851
:1000B000D53200080D350008113500081535000847
:1000C000193500081D3500082135000825350008C0
:1000D000293500082D350008313500083535000870
:1000E000393500083D35000841350008F8B50400F1
:1000F000002500260027002C01D10120A8E094F85B
:100100003C00002805D1002084F83D00200000F0CC
:1001100093FC022084F83C00206800687FF0020114
:100120000840216808602068006850F001002168DC
:10013000086000F018FD060020684068C0070CD475
:1001400000F011FD801B0B28F6D3032084F83C003F
:10015000002084F83D0003207AE020684068C00752
:1001600069D5A069012802D157F0800702E07FF02D
:1001700080000740E069012802D157F0400702E003
:100180007FF040000740206A012802D157F0200785
:1001900002E07FF020000740606A012802D157F09A
:1001A000100702E07FF010000740A06A012802D18A
:1001B00057F0080702E07FF008000740E06A0128D6
:1001C00002D157F0040702E07FF0040007402068E6
:1001D00000687FF0FC010840384321680860A0688F
:1001E000E168084321690843616908436168491E61
:1001F00008432168C8612068006840084000216801
:10020000086000F0B0FC060020684068C0070CD50C
:1002100000F0A9FC801B0B28F6D3032084F83C00D7
:10022000002084F83D00032012E020684068C007E9
:1002300001D401200500012D06D1002020640120F9
:1002400084F83C00002003E0042084F83C000120F6
:10025000F2BD30B40200002301204C69A04003002D
:100260001068D0F8000230F47C504C6A50EA042048
:1002700050F001001468C4F800021068D0F81C02A5
:1002800098431468C4F81C02C86900281CD110687F
:10029000D0F80C0298431468C4F80C0210684C693A
:1002A00000EBC400CC684D68ADB255EA0444C0F818
:1002B000404210684C6900EBC4008C680D68ADB218
:1002C00055EA0444C0F84442C86901281CD11068AA
:1002D000D0F80C0218431468C4F80C0210684C697A
:1002E00000EBC4000C684D68ADB255EA0444C0F898
:1002F000404210684C6900EBC4008C68CD68ADB218
:1003000055EA0444C0F844428869002807D11068BF
:10031000D0F8040298431468C4F8040206E0106898
:10032000D0F8040218431468C4F8040208690028CD
:1003300007D11068D0F8140298431468C4F8140266
:1003400006E01068D0F8140218431468C4F81402C8
:10035000086A012806D11068D0F81C0218431468F6
:10036000C4F81C021068D0F800024008400014686D
:10037000C4F80002002030BC70470200C9B2002956
:1003800011D192F83C0022280BD092F83C00422870
:1003900007D092F83C00622803D092F83C00722803
:1003A00001D102206FE0C9B2012911D192F83C00BD
:1003B00032280BD092F83C00522807D092F83C002B
:1003C000622803D092F83C00722801D102205AE042
:1003D00092F83D00012801D1022054E0012082F86A
:1003E0003D00C9B2002918D192F83C00122804D06F
:1003F000322806D0522808D00BE0422082F83C0078
:1004000023E0622082F83C001FE0722082F83C006A
:100410001BE0222082F83C0017E092F83C001228F2
:1004200004D0222806D0422808D00BE0522082F8BF
:100430003C000AE0622082F83C0006E0722082F86C
:100440003C0002E0322082F83C000020106410687A
:10045000406940F40F4050F00100136858610020DB
:1004600082F83D00C9B2002906D11068406950F0F9
:100470000A001368586105E01068406950F05000A8
:1004800013685861002070472DE9F04104000025F1
:10049000002600275FF000082068C068000910F0FF
:1004A0000100050020684069C0F3C00010F00100A1
:1004B0000600002D06D0002E04D058F4007810203D
:1004C0002168C86020680069000910F0010005007B
:1004D00020684069C0F3801010F001000600002D74
:1004E00006D0002E04D058F48068102021680861DE
:1004F00020684069C00744D5206880689749084053
:100500009649884201D1012500E0002520688068D5
:10051000934908409249884201D1012600E0002613
:10052000206880688F4908408E49884201D10127A0
:1005300000E0002756EA05003843002821D0206853
:100540008068400810F00100050020688068400ABB
:1005500010F0010006002068806810F0010007001C
:1005600056EA05003843002803D0200000F002F9C5
:1005700001E058F40068206880687B4908432168DE
:1005800088602068C06810F003000500206840699A
:10059000C0F3400010F001000600002D05D0002E31
:1005A00003D00021200000F014F92068006910F049
:1005B0000300050020684069C0F3001010F001003E
:1005C0000600002D05D0002E03D00121200000F0F0
:1005D00000F9206C58EA000020642068806910F05F
:1005E0000100050020684069C0F3002010F0010000
:1005F000060020684069C0F3C03010F00100070019
:10060000002D07D0002E05D0002F03D0206C50F015
:100610000100206420688069400810F00100050096
:1006200020684069C0F3402010F0010006002068F7
:100630004069C0F3C03010F001000700002D07D062
:10064000002E05D0002F03D0206C50F00200206453
:1006500020688069800810F001000500206840696A
:10066000C0F3802010F00100060020684069C0F34C
:10067000C03010F001000700002D07D0002E05D07B
:10068000002F03D0206C50F00400206420688069A3
:1006900010F0700F01D1012500E0002520684069AD
:1006A000C0F3C02010F00100060020684069C0F3CC
:1006B000C03010F001000700002D3BD1002E39D0D2
:1006C000002F37D02068806910F0700005002800E6
:1006D00010280AD020280DD0302810D0402813D060
:1006E000502816D0602819D01DE0206C50F008006A
:1006F000206418E0206C50F01000206413E0206C9F
:1007000050F0200020640EE0206C50F04000206487
:1007100009E0206C50F08000206404E0206C50F46C
:1007200080702064FFE7206880697FF070010840D6
:1007300021688861206C00280ED004202168486060
:10074000012084F83C00206840690849084021687D
:100750004861200000F00DF8BDE8F08101000004C0
:10076000000100080000011009050100A470FFFF4E
:100770007047704710B50400206840694008400089
:100780002168486194F83C00122805D1206840692E
:1007900030F40F402168486194F83C00422804D0AE
:1007A000522806D0722808D00BE0222084F83C00A2
:1007B0000AE0322084F83C0006E0622084F83C0025
:1007C00002E0012084F83C002000FFF7D1FF002068
:1007D00010BDF8B504000D0000260027EDB2002D75
:1007E00002D1606B070001E0A06B07002068EDB24A
:1007F00029010844D0F8B00110F00400B860B868CE
:10080000002808D12068EDB229010844D0F8B001D1
:10081000400D386007E02068EDB229010844D0F8A7
:10082000B001C00878602068EDB229010844D0F812
:10083000B00110F00200F8602068EDB22901084410
:10084000D0F8B40110F00F003861EDB23D622068BD
:10085000EDB229010844D0F8B401C0F30720F861D3
:100860002068EDB229010844D0F8B8013875206835
:10087000EDB229010844D0F8B801000A7875206863
:10088000EDB229010844D0F8B801000CB875206811
:10089000EDB229010844D0F8B801000EF8752068BF
:1008A000EDB229010844D0F8BC0138762068EDB2D9
:1008B00029010844D0F8BC01000A78762068EDB21E
:1008C00029010844D0F8BC01000CB8762068EDB2CC
:1008D00029010844D0F8BC01000EF876EDB2002DD5
:1008E0000AD120202168C860206840697FF00A0191
:1008F00008402168486109E02020216808612068DB
:1009000040697FF0500108402168486194F83C003C
:100910000600222E01D0322E05D12068406930F425
:100920000F4021684861EDB2002D18D194F83C00C9
:10093000422804D0622806D0722808D00BE012208A
:1009400084F83C0023E0322084F83C001FE0522071
:1009500084F83C001BE0012084F83C0017E094F888
:100960003C00522804D0622806D0722808D00BE040
:10097000122084F83C000AE0222084F83C0006E0C3
:10098000422084F83C0002E0012084F83C00200072
:1009900000F076F90020F2BD80B55F48006850F0A5
:1009A00001005D4908605C48006810F0010000909B
:1009B00000985A48006850F08050584908605748DD
:1009C000006810F0805000900098032000F0CAF9F1
:1009D000002200217FF00B0000F0CAF90022002164
:1009E0007FF00A0000F0C4F9002200217FF0090026
:1009F00000F0BEF9002200217FF0040000F0B8F9F9
:100A0000002200217FF0030000F0B2F900220F2144
:100A10007FF0010000F0ACF900220F215FF0FF3001
:100A200000F0A6F93E490968080030F0E06050F097
:100A300000703B49086001BD10B586B00400206815
:100A40003849884241D13548006850F00070334938
:100A500008603248006810F00070009000984FF471
:100A600000600190002002900020039001A92E4810
:100A700000F0C0F94FF48050019002200290032052
:100A8000049001A9284800F0B5F90022052113209F
:100A900000F06EF9132000F07EF9002205211420E9
:100AA00000F066F9142000F076F9002205211520E7
:100AB00000F05EF9152000F06EF9002205211620E5
:100AC00000F056F9162000F066F906B010BD81B0AE
:100AD0000168164A91420BD11049096851F004018E
:100AE0000E4A11600D49096811F004010091009946
:100AF00001B070471FB5040020680C4988420AD134
:100B00004FF470700090022001900220039069461B
:100B1000074800F06FF91FBD181002401C1002407A
:100B2000040001400064004000080140000800404B
:100B3000000C014080B50D48006850F010000B49D2
:100B40000860032000F00EF9002000F0DDFAFFF746
:100B500023FF002002BD07480068054909780818EE
:100B6000044908607047034800687047002002404D
:100B700008000020301400200020092843DA3949F9
:100B8000382202FB00F21144C8600021354A3823A4
:100B900003FB00F31A44D1750121324A382303FBC9
:100BA00000F31A44117500212E4A382303FB00F389
:100BB0001A44917501212B4A382303FB00F31A4490
:100BC00051750FF2B901274A382303FB00F31A4489
:100BD00051620FF2A501234A382303FB00F31A44A4
:100BE00091610FF299011F4A382303FB00F31A4465
:100BF00011620FF289011B4A382303FB00F31A44E8
:100C0000D161401CB9E7704780B50121164800F05A
:100C10004EFA002801D1012200E00022D2B20121C7
:100C2000124800F0B9FA4FF400710F4800F03FFA93
:100C3000002801D1012200E00022D2B201210C489B
:100C400000F0AAFA4FF48061074800F030FA00285B
:100C500001D1012200E00022D2B20121054800F0BA
:100C60009BFA01BD10100020000801401C1000205C
:100C7000541000208C10002070470000704770470F
:100C800010B5040000212000FFF777FB2000FFF7DC
:100C9000F6FF10BD10F007024E4B1B6819004FF60F
:100CA000FF0319404C4B53EA02231943494B196087
:100CB000704748480068C0F302207047012110F0D7
:100CC0001F029140454A40B2430942F82310704741
:100CD00010B440B2002808D50A01414B40B210F0D0
:100CE0000F04234403F8042C03E00A013D4B40B2F7
:100CF0001A5410BC704770B4030013F00704D4F109
:100D00000706052E01D3042001E0D4F10700261DBB
:100D1000072E01D2002500E0E51E012616FA00F09C
:100D2000401E0840A8400121A940491E1140084327
:100D300070BC704710B50400601EB0F1807F01D315
:100D400001200EE0601E284908600F215FF0FF308F
:100D5000FFF7BEFF002025490860072024490860EE
:100D6000002010BD10B504002000FFF793FF10BD58
:100D7000F8B504000D0016000027FFF79AFF0700E2
:100D8000320029003800FFF7B6FF0100200040B212
:100D9000FFF79EFFF1BD10B50400200040B2FFF741
:100DA0008DFF10BD10B504002000FFF7C3FF10BD7C
:100DB000042806D10E49096851F004010C4A11605B
:100DC00006E00B4909687FF004021140084A1160EF
:100DD000704700000CED00E00000FA0500E100E0C3
:100DE00018ED00E000E400E014E000E018E000E0AE
:100DF00010E000E02DE9F841002300240025002642
:100E00005FF0000E5FF0000C6246102A80F04D810A
:100E10005FF0010C1CFA02FC6346D1F800C013EA33
:100E20000C0C64469C4240F03E81D1F804C0BCF1F9
:100E3000000F3DD0BCF1010F24D0BCF1020F2BD02C
:100E4000BCF1030F4CD0BCF1110F1FD0BCF1120F3D
:100E500028D0DFF87482C4452AD0DFF87082C445F8
:100E600026D0DFF86C82C44522D0DFF86882C44502
:100E70001ED0DFF86482C4451AD0DFF86082C44512
:100E800016D031E0D1F80CC066462DE0D1F80CC088
:100E90001CF1040C664627E0D1F80CC01CF1080CCC
:100EA000664621E0D1F80CC01CF10C0C66461BE034
:100EB000D1F808C0BCF1000F03D15FF0040C664606
:100EC0000DE0D1F808C0BCF1010F04D15FF0080CAF
:100ED0006646036103E05FF0080C6646436103E089
:100EE0005FF0000C6646FFE7FF2C01D8070000E02A
:100EF000071DFF2C02D85FEA820E03E0B2F1080C56
:100F00005FEA8C0ED7F800C05FF00F0818FA0EF8F1
:100F10003CEA080C16FA0EF858EA0C0CC7F800C0A8
:100F2000D1F804C05FEACC0C40F1BD80DFF8B0C15D
:100F3000DCF800C05CF0010CDFF8A481C8F800C048
:100F4000DFF89CC1DCF800C01CF00108CDF800807F
:100F5000DDF800C0DFF88CC15FEA92085CF828C0B9
:100F600065465FF00F0C12F003085FFA88F85FEA3D
:100F700088081CFA08FC35EA0C05DFF86CC16045EE
:100F800002D15FF0000C16E0DFF860C1604502D1CD
:100F90005FF0010C0FE0DFF858C1604502D15FF04F
:100FA000020C08E0DFF84CC1604502D15FF0030C91
:100FB00001E05FF0040C12F003085FFA88F85FEAC2
:100FC00088081CFA08FC5CEA0505DFF818C15FEA2E
:100FD00092084CF82850D1F804C05FEACC3C0AD5FE
:100FE000DFF814C1DCF800C054EA0C0CDFF808810B
:100FF000C8F800C009E0DFF800C1DCF800C03CEA36
:10100000040CDFF8F480C8F800C0D1F804C05FEA2F
:101010008C3C0AD5DFF8E4C0DCF800C054EA0C0CC4
:10102000DFF8D880C8F800C009E0DFF8D0C0DCF8ED
:1010300000C03CEA040CDFF8C480C8F800C0D1F856
:1010400004C05FEACC2C0AD5DFF8B4C0DCF800C0DD
:1010500054EA0C0CDFF8A880C8F800C009E0DFF8FB
:10106000A0C0DCF800C03CEA040CDFF89480C8F8AB
:1010700000C0D1F804C05FEA8C2C0AD5DFF884C028
:10108000DCF800C054EA0C0CDFF87880C8F800C027
:1010900009E0DFF870C0DCF800C03CEA040CDFF8BF
:1010A0006480C8F800C0521CAFE6BDE8F1810200C0
:1010B000936889B20B4202D00123180001E000239B
:1010C0001800C0B27047000000001110000012109C
:1010D000000021100000221000003110000032102A
:1010E000181002400800014000080140000C0140B7
:1010F00000100140001401400004014004040140BC
:10110000080401400C04014070B588B004000025BB
:101110000026002221001C20FFF72AFE1C20FFF7DA
:101120003AFE1A48006850F0010018490860174854
:10113000006810F001000090009801A902A800F0DA
:101140000BFC00F0FEFB400005001148B5FBF0F081
:10115000401E06005FF080400E49086040F2E73014
:101160000C49C8600B48466000200A49086100200D
:1011700008498860074800F041FC002803D1054871
:1011800000F059FC00E0012008B070BD1C100240C6
:1011900040420F002413002070B504000D0016001B
:1011A0002079002807D10020A062002020630120C0
:1011B000207100206071606AEDB228186062F6B29A
:1011C000002E6FD0A06AEDB22818A062A06A142881
:1011D0004FD3607900284CD1012060710020E0627B
:1011E000E079002801D1012000E00020E071E079E1
:1011F000002802D0606AE06101E0606A2062207A23
:1012000000281AD0E069216A884209D2606B216AFD
:10121000E269891A884203D22068E16888470CE0B5
:10122000206AE169884208D2606BE169226A891A02
:10123000884202D22068E1688847E07A002818D006
:10124000E069216A884208D2206AE169401AC82808
:1012500003D22068A16988470BE0206AE1698842CF
:1012600007D2E069216A401AC82802D22068A16921
:101270008847A06AB0F5C87F01D30120A071A0798A
:1012800000282CD0A07A002829D0206BEDB2281895
:101290002063206B502822D3206861698847002092
:1012A00020631CE0F6B2002E19D1E06AEDB22818D6
:1012B000E062E06A142812D31420E062607900280A
:1012C00005D0607A002802D0206821698847002074
:1012D000A06200202063002060710020A07170BD1A
:1012E00070B582B0040000252078C00740F18480EA
:1012F000DFF8C806006810F00C0004280BD0DFF8F7
:10130000BC06006810F00C0008280ED1DFF8AC060F
:101310000068C00309D5DFF8A006006880036BD51C
:101320006068002868D1012008E26068B0F5803F5D
:1013300008D1DFF88406006850F48030DFF87816B2
:10134000086038E06068002810D1DFF86C0600689B
:1013500030F48030DFF860160860DFF85C06006863
:1013600030F48020DFF85016086024E06068B0F5A3
:10137000A02F10D1DFF84006006850F48020DFF87D
:1013800038160860DFF83006006850F48030DFF867
:10139000281608600FE0DFF82006006830F480307F
:1013A000DFF814160860DFF81006006830F48020BB
:1013B000DFF804160860606800280ED0FFF7D3FB42
:1013C0000500DFF8F4050068800315D4FFF7CBFBB8
:1013D000401B6528F5D30320B0E1FFF7C4FB0500EF
:1013E000DFF8D4050068800306D5FFF7BCFB401B7F
:1013F0006528F5D30320A1E1207880075ED5DFF8CA
:10140000BC05006810F00C0F0BD0DFF8B0050068C9
:1014100010F00C0008281BD1DFF8A0050068C003FD
:1014200016D4DFF894050068800704D520690128E8
:1014300001D0012082E1DFF8800500687FF0F8012B
:101440000840616950EAC100DFF86C15086035E0BA
:10145000206900281FD00120DFF870150860FFF711
:1014600082FB0500DFF850050068800706D4FFF70F
:101470007AFB401B0328F5D303205FE1DFF8380532
:1014800000687FF0F8010840616950EAC100DFF8A8
:101490002815086012E00020DFF830150860FFF71B
:1014A00062FB0500DFF810050068800706D5FFF72E
:1014B0005AFB401B0328F5D303203FE120780007A7
:1014C0002CD5A069002816D00120DFF8041508608B
:1014D000FFF749FB0500DFF8F0040068800706D439
:1014E000FFF741FB401B0328F5D3032026E1012031
:1014F00000F04FFA12E00020DFF8D4140860FFF784
:1015000032FB0500DFF8C0040068800706D5FFF74E
:101510002AFB401B0328F5D303200FE12078400766
:1015200040F1A9800026DFF8AC040068C00010D4A8
:10153000DFF8A004006850F08050DFF898140860CD
:10154000DFF89004006810F08050009000980120AF
:101550000600DFF884040068C00516D4DFF87804BC
:10156000006850F48070DFF870140860FFF7FBFA31
:101570000500DFF864040068C00506D4FFF7F3FA3D
:10158000401B6528F5D30320D8E0E068012808D186
:10159000DFF84804006850F00100DFF840140860EC
:1015A00039E0E068002811D1DFF830040068400815
:1015B0004000DFF828140860DFF8200400687FF09E
:1015C00004010840DFF81414086024E0E0680528EE
:1015D00010D1DFF80804006850F00400DFF8FC13B5
:1015E0000860DFF8F803006850F00100DFF8EC1342
:1015F000086010E0DFF8E403006840084000DFF80E
:10160000DC130860DFF8D40300687FF004010840B1
:10161000DFF8C8130860E068002810D0FFF7A3FACD
:101620000500DFF8B8030068800719D4FFF79BFABC
:10163000401B41F289318842F3D303207EE0FFF75B
:1016400092FA0500DFF894030068800708D5FFF7D9
:101650008AFA401B41F289318842F3D303206DE0BE
:10166000F6B2012E07D1DFF86C03006830F080502D
:10167000DFF860130860E06900285ED0DFF83C0303
:10168000006810F00C00082855D0E06902283FD10E
:101690000020DFF84C130860FFF765FA0500DFF85B
:1016A00018030068800106D5FFF75DFA401B032888
:1016B000F5D3032042E0206AB0F5803F09D1DFF87E
:1016C000FC02006830F40030A1680843DFF8EC1237
:1016D0000860DFF8E802006830F47410216A0843FB
:1016E000616A0843DFF8D41208600120DFF8F012C5
:1016F0000860FFF738FA0500DFF8BC0200688001D7
:101700001BD4FFF730FA401B0328F5D3032015E064
:101710000020DFF8CC120860FFF725FA0500DFF89B
:1017200098020068800108D5FFF71DFA401B0328C6
:10173000F5D3032002E0012000E0002076BD70B563
:1017400004000D000026DFF89C02006810F007007E
:10175000A84211D2DFF88C020068C008C0002843FC
:10176000DFF880120860DFF87C02006810F00700E4
:10177000A84201D00120A4E0207880070AD5DFF834
:101780003C0200687FF0F0010840A1680843DFF8E0
:101790002C1208602078C00758D56068012806D14F
:1017A000DFF814020068800312D4012089E0606829
:1017B000022806D1DFF800020068800108D4012069
:1017C0007FE0DFF8F4010068800701D4012078E0B1
:1017D000DFF8E80100688008800061680843774905
:1017E0000860FFF7C0F90600606801280ED1734851
:1017F000006810F00C00042828D0FFF7B4F9801B13
:1018000041F289318842F2D303205AE0606802280D
:101810000ED16A48006810F00C00082816D0FFF7B7
:10182000A2F9801B41F289318842F2D3032048E0BB
:101830006248006810F00C0F08D0FFF794F9801B85
:1018400041F289318842F3D303203AE065480068C9
:1018500010F0070085420ED262480068C008C00040
:101860002843604908605F48006810F00700A842FC
:1018700001D0012025E02078400707D54F480068B7
:1018800030F4E060E16808434C49086020780007C4
:1018900008D54A48006830F46050216950EAC10018
:1018A0004649086000F00EF84F49444A1268C2F3F6
:1018B0000312895CC840434908600020FFF724FCFC
:1018C000002070BD70B586B001A84849102200F014
:1018D0005DFB47480088ADF800000021002200238E
:1018E00000240020354D2D68290011F00C05042D31
:1018F00002D0082D03D01DE0314D28001CE001ADC1
:10190000C1F38346AD5D2C00CD030DD56D462B4E46
:101910003668C6F34046AD5D2A00294D05FB04F547
:10192000B5FBF2F52B0003E0324D05FB04F52B006F
:10193000180001E0224D280006B070BD2148006863
:10194000704780B5FFF7FAFF2B491C4A1268C2F3B3
:101950000222895CC84002BD0F220260174A126849
:1019600012F003024260154A126812F0F00282601F
:10197000124A126812F4E062C260104A1268D20879
:1019800012F4E0620261174A126812F007020A605C
:10199000704781B00B490968C9084FF47A72B1FBEE
:1019A000F2F101FB00F1009100BF00994A1E009284
:1019B0000029F9D101B07047001002400410024024
:1019C00000127A000400002024100240000042426D
:1019D000800442421C10024000700040201002406F
:1019E00060004242002002404C3400083C340008B1
:1019F0008A1F000800093D009834000810B5040053
:101A0000002C01D1012014E094F83D00002805D1FC
:101A1000002084F83C00200000F00CF8022084F83C
:101A20003D00211D206800F090F9012084F83D0060
:101A3000002010BD704701000868C06850F0010028
:101A40000A68D0600868006850F001000A681060F9
:101A50000020704710B50400002C01D1012014E0D3
:101A600094F83D00002805D1002084F83C002000B7
:101A7000FFF72DF8022084F83D00211D206800F0BA
:101A800064F9012084F83D00002010BD38B5040041
:101A90000D0001222900206800F068FA2068DFF8B4
:101AA0002410884205D12068406C50F40040216821
:101AB00048642068006850F0010021680860002038
:101AC00032BD0000002C014010B504002068006900
:101AD00080071AD52068C068800716D57FF00200FD
:101AE00021680861012020772068806910F0030FC9
:101AF00003D0200000F026F905E0200000F021F9D5
:101B0000200000F020F900202077206800694007BD
:101B10001AD52068C068400716D57FF004002168F8
:101B20000861022020772068806910F4407F03D08C
:101B3000200000F007F905E0200000F002F9200085
:101B400000F001F9002020772068006900071AD50D
:101B50002068C068000716D57FF00800216808617A
:101B6000042020772068C06910F0030F03D0200004
:101B700000F0E8F805E0200000F0E3F8200000F0B5
:101B8000E2F80020207720680069C0061AD5206896
:101B9000C068C00616D57FF01000216808610820D3
:101BA00020772068C06910F4407F03D0200000F047
:101BB000C9F805E0200000F0C4F8200000F0C3F8E8
:101BC0000020207720680069C0070AD52068C06817
:101BD000C00706D57FF0010021680861200000F0F1
:101BE000C3FB2068006900060AD52068C0680006AB
:101BF00006D57FF0800021680861200000F0EEFB30
:101C00002068006940060AD52068C068400606D5ED
:101C10007FF0400021680861200000F095F82068FE
:101C2000006980060AD52068C068800606D57FF066
:101C3000200021680861200000F0CFFB10BD70B5C6
:101C400004000D00160094F83C00012801D1022088
:101C500076E0012084F83C00022084F83D0030004A
:101C6000002806D004281CD0082832D00C2848D0E0
:101C70005FE02900206800F09EF82068806950F03D
:101C8000080021688861206880697FF004010840AD
:101C90002168886120688069296908432168886112
:101CA00047E02900206800F0BDF82068806950F402
:101CB0000060216888612068806930F48060216854
:101CC000886120688069296950EA0120216888615B
:101CD0002FE02900206800F0E1F82068C06950F08A
:101CE00008002168C8612068C0697FF004010840CD
:101CF0002168C8612068C069296908432168C861F2
:101D000017E02900206800F001F92068C06950F44C
:101D100000602168C8612068C06930F48060216873
:101D2000C8612068C069296950EA01202168C8613A
:101D3000FFE7012084F83D00002084F83C000020EB
:101D400070BD7047704770477047002203681A00E3
:101D5000834B984208D0B0F1804F05D0814B984218
:101D600002D0814B984204D17FF070031A404B6837
:101D70001A437B4B984208D0B0F1804F05D0794B85
:101D8000984202D0784B984203D132F44072CB682B
:101D90001A437FF080031A404B691A4302608B6834
:101DA000C3620B6883626E4B984201D10B69036377
:101DB00001234361704730B4002300240022056AE8
:101DC0006D086D000562056A2C0045682A0085696A
:101DD0002B007FF070052B409B089B000D682B4368
:101DE0007FF002052C408D682C435D4DA84207D141
:101DF0007FF008052C40CD682C437FF004052C4073
:101E0000574DA84207D132F4807232F400724D6906
:101E10002A438D692A43426083614D6845630462A9
:101E200030BC704770B4002300240022056A7FF0A4
:101E3000100635400562056A2C0045682A00856950
:101E40002B0033F4E04333F440730D6853EA052369
:101E50007FF020052C408D6854EA0514404DA842BF
:101E600008D17FF080052C40CD6854EA05147FF03E
:101E700040052C403A4DA84209D132F4806232F438
:101E800000624D6952EA85028D6952EA850242601C
:101E900083614D688563046270BC704730B4002371
:101EA00000240022056A35F480750562056A2C005D
:101EB00045682A00C5692B007FF070052B409B0800
:101EC0009B000D682B4334F400748D6854EA05249C
:101ED000234DA84206D134F40064CD6854EA0524A9
:101EE00034F480641E4DA84209D132F4805232F499
:101EF00000524D6952EA05128D6952EA051242609C
:101F0000C3614D68C563046230BC704730B40022C1
:101F100000230024056A35F480550562056A2B000C
:101F200045682C00C5692A0032F4E04232F4407260
:101F30000D6852EA052233F400538D6853EA0533E5
:101F4000074DA84204D134F480444D6954EA851405
:101F50004460C2614D680564036230BC7047000094
:101F6000002C0140000400400008004030B4002371
:101F700001248C402300046A9C430462046A12FA20
:101F800001F52C43046230BC70470102103A07D3BC
:101F900030B4B1E83810103AA0E83810F9D230BCAB
:101FA000530724BFB1E80810A0E8081044BF51F857
:101FB000043B40F8043BD20724BF31F8022B20F841
:101FC000022B44BF0B7803707047083A07D3B1E87F
:101FD0000810083A40F8043B40F804CBF7D2530706
:101FE000E4E7000000B58BB0FEF7A4FD00F037F881
:101FF00000F015F900F077F800F0A6F800F042F9CB
:102000000021C848FEF7B9F90021C748FFF73EFD97
:102010000421C548FFF73AFD0821C348FFF736FD04
:102020000C21C148FFF732FDFEF7A6FD05A8BF4908
:102030001422FFF7ABFF002105A800F0DFF9BC492F
:1020400008606846BB491422FFF7A0FF00216846DC
:1020500000F0D4F9B849086000F0CBF9FEE700B50C
:102060008FB0012005905FF480300690002007902B
:102070000120099002200C905FF480300D905FF4F5
:10208000E0100E9005A8FFF72BF9002803D0C72118
:10209000AA4800F072F90F20009002200190002061
:1020A00002904FF480600390002004900221684663
:1020B000FFF745FB002803D0D521A04800F05DF9CB
:1020C000FFF73CFC4FF47A71B0FBF1F0FEF76AFECB
:1020D0000420FEF76DFE00220F215FF0FF30FEF7B7
:1020E00047FE0FB000BD80B595488E4908601220AC
:1020F0008C49486000208B49886000208949C8606D
:102100005FF44020874908615FF480108549486189
:1021100000208449886101208249C86101208149E9
:10212000086201207F49486200207E4988620020C1
:102130007C49C8627B48FDF7D9FF002803D0F6210F
:102140007E4800F01AF901BD00B589B07D48764996
:10215000086000207449486000207349886042F696
:10216000DF607149C86000206F49086100206E4936
:1021700088616D48FFF76EFC002804D04FF485712C
:102180006E4800F0FAF800200090002001906946A7
:10219000654800F0F3F8002804D040F211116748B8
:1021A00000F0EBF8602002900020039000200490E3
:1021B00000200690002202A95B48FFF740FD00289E
:1021C00004D04FF48D715D4800F0D7F8042202A9C5
:1021D0005548FFF734FD002804D040F21F1157483E
:1021E00000F0CBF8082202A94F48FFF728FD00288D
:1021F00004D04FF49271514800F0BFF80C2202A9AC
:102200004948FFF71CFD002804D040F229114B4833
:1022100000F0B3F84448FEF76DFC09B000BD00B50E
:1022200085B04948006850F020004749086046489A
:10223000006810F02000009000984348006850F0BB
:102240000400414908604048006810F00400009014
:1022500000983D48006850F008003B4908603A4843
:10226000006810F008000090009840F201600190B2
:10227000002002900020039001A93448FEF7BAFD27
:1022800005B000BD00B58BB0314826490863022077
:102290002449096B486008202249096B0861042021
:1022A0002049096B886000201E49096BC8602948D5
:1022B0001C49486301201B49496B486008201949A3
:1022C000496B086104201749496B88600020154953
:1022D000496BC860002005900020069001200790FF
:1022E0000020009000200190002002900020039028
:1022F00000200490012008900E20099069460948AA
:10230000FDF7A7FF0BB000BD38B50400012500F0B4
:10231000E2FA1149086029000F4800F09FF9FEF722
:1023200073FCF8E7A0120020E41200201434000827
:10233000201400202834000824140020283300082A
:1023400000640040000800401810024000080140EE
:1023500088130020641300202814002010B5040006
:10236000012000F062F8FBE710B504002068B0F12E
:10237000804F01D1FEF7EFFB10BDFEE7020092F89F
:102380003C00012801D1022026E0012082F83C0017
:10239000022082F83D00106840687FF0700318400A
:1023A00013685860106840680B68184313685860D9
:1023B000106880687FF08003184013689860106888
:1023C00080684B68184313689860012082F83D00CC
:1023D000002082F83C0000207047704770470000E2
:1023E0000100002009B2842902D009B2CA1C1018C9
:1023F000704780B500F0B4F9002002BD3EB504007E
:102400000D00B4F90800FFF7EBFF02A9019100905D
:102410002B00226992B22168606800F01DF8012843
:1024200001D0002000E002983EBD38B50400012034
:10243000B4FBF0F5002D01D0280000E0012000F0F1
:1024400068F9002032BD80B500F0BEFB012801D044
:1024500000F0E5FC01BD00002DE9F04F85B004005F
:102460000D0016001F00DDF83880DDF83C90B6B294
:10247000B00000F007FD8346BBF1000F0DD05420E3
:1024800000F000FD8246BAF1000F02D0CAF830B069
:1024900005E0584600F083FD01E000208246BAF1D5
:1024A000000F14D000200390CDF808A0CDF80490C0
:1024B000CDF800803B00B6B232002900200000F0C9
:1024C0000DF8504600F06EF80120049002E05FF035
:1024D000FF300490049805B0BDE8F08F2DE9F14F6E
:1024E0000C0015001E000A9FDDF82C80DDF83090EE
:1024F000D9F8300000EB8500001F82465FEADA0A57
:102500005FEACA0A1AF00700002807D0502080F3BB
:102510001188BFF34F8FBFF36F8FFEE70020834614
:10252000BBF1100F0CD214F80B0009EB0B0181F872
:10253000340014F80B00002802D01BF1010BEFE768
:10254000002089F84300072F01D306200700C9F8AF
:102550002C70C9F844700020C9F8480019F1040033
:1025600000F0E1FD19F1180000F0DDFDC9F8109050
:10257000D7F10700C9F81800C9F824900020C9F85D
:102580004C00002089F8500032000099504600F0BD
:10259000A7FBC9F80000B8F1000F01D0C8F80090FF
:1025A000BDE8F18F10B5040000F003FCDFF8CC04A7
:1025B0000068401CDFF8C4140860DFF8C404006839
:1025C00000280AD1DFF8B8040460DFF8B00400681E
:1025D000012811D100F072FA0EE0DFF8A8040068BB
:1025E000002809D1E06ADFF898140968C96A8842AE
:1025F00002D3DFF88C040460DFF88C040068401C10
:10260000DFF884140860DFF8840400680121E26ABE
:1026100091400843DFF874140860211DDFF870044E
:10262000E26A14235A43104400F080FD00F0DEFB00
:10263000DFF85004006800280FD0DFF84404006879
:10264000C06AE16A884208D25FF08050DFF8A015C6
:102650000860BFF34F8FBFF36F8F10BD2DE9F843B4
:1026600004000D005FF00008002C07D1502080F31B
:102670001188BFF34F8FBFF36F8FFEE7002D07D197
:10268000502080F31188BFF34F8FBFF36F8FFEE7A9
:10269000DFF884040068002807D0502080F31188F8
:1026A000BFF34F8FBFF36F8FFEE700F08DF8DFF8B9
:1026B000D404D0F8009020682818060020688145CE
:1026C00007D2206886420BD2B14509D2012080464C
:1026D00006E02068864201D3B14501D20120804640
:1026E0002660B8F1000F04D00021B6EB090000F01D
:1026F00093FA00F071F80700002F08D15FF08050C6
:10270000DFF8EC140860BFF34F8FBFF36F8FBDE8A5
:10271000F18338B504000025002C15D0DFF8F8034C
:102720000068002807D0502080F31188BFF34F8F36
:10273000BFF36F8FFEE700F047F80021200000F0A4
:102740006BFA00F049F80500002D08D15FF08050C9
:10275000DFF89C140860BFF34F8FBFF36F8F31BD5C
:102760001CB5DFF89804019000200090002380221F
:10277000DFF88C140FF21D30FFF76EFE0400012C01
:1027800016D1502080F31188BFF34F8FBFF36F8FA6
:102790005FF0FF30DFF86C1408600120DFF8E4120E
:1027A00008600020DFF8DC13086000F0BEFA0AE0E1
:1027B00014F1010F07D1502080F31188BFF34F8F20
:1027C000BFF36F8FFEE713BDDFF84C030068401CBA
:1027D000DFF844130860704770B500240025DFF867
:1027E00038030068002807D1502080F31188BFF318
:1027F0004F8FBFF36F8FFEE700F0DBFADFF81803AF
:102800000068401EDFF810130860DFF80C03006852
:1028100000285CD1DFF864020068002857D0DFF898
:10282000D803006800282AD0DFF8CC03C068C0684D
:10283000040014F1180000F0A2FC201D00F09FFC21
:10284000DFF8480200680121E26A91400843DFF89E
:102850003C120860211DDFF83802E26A14235A4353
:10286000104400F063FCE06ADFF814120968C96ADA
:102870008842D4D30120DFF824140860CFE7002C6D
:1028800001D000F08AF9DFF880030668002E0ED030
:1028900000F026F8002803D00120DFF800140860BB
:1028A000761E002EF4D10020DFF85C130860DFF8FC
:1028B000EC03006800280AD0012005005FF080507A
:1028C000DFF82C130860BFF34F8FBFF36F8F00F05A
:1028D0008DFA280070BDDFF8C8130968080070473A
:1028E0002DE9F0410026DFF83002006800287BD196
:1028F000DFF890020068471CDFF888020760002FAD
:1029000024D1DFF8080300680068002807D05020B1
:1029100080F31188BFF34F8FBFF36F8FFEE7DFF8AF
:10292000EC0200688046DFF8E8020068DFF8DC129D
:102930000860DFF8DC02C0F80080DFF8D802006829
:10294000401CDFF8D012086000F027F9DFF8B4026D
:10295000006887423CD3DFF8B402006800680028B2
:1029600005D15FF0FF30DFF89C12086030E0DFF83F
:102970009C020068C068C068040060680500AF423F
:1029800003D2DFF88002056022E0201D00F0F7FB93
:10299000A06A002803D014F1180000F0F0FB3B48B7
:1029A00000680121E26A9140084338490860211D0E
:1029B0003748E26A14235A43104400F0B7FBE06A38
:1029C0002F490968C96A8842C5D301200600C2E7B9
:1029D0002F482B490968C96A1422514340580228DC
:1029E00009D30120060006E0DFF81C020068401C45
:1029F000DFF814120860DFF8A4020068002801D094
:102A0000012006003000BDE8F0814348006800283E
:102A100004D00120DFF8841208602EE00020DFF8E7
:102A20007C12086019490968B1FA81F1D1F11F01DE
:102A300008001749142202FB00F28958002907D127
:102A4000502181F31188BFF34F8FBFF36F8FFEE7E3
:102A50000F4A142303FB00F31A4411004A6852681A
:102A60004A604A6811F108039A4202D14A685268E2
:102A70004A604968C968024A1160704744140020DE
:102A80003414002050140020601400204C14002046
:102A90001412002010B5040000F040F8DFF80C021A
:102AA00000680228F8D35FF08050DFF80412086055
:102AB000BFF34F8FBFF36F8FEEE7000010B500201C
:102AC0000400072C09D2DFF8E401142101FB04F112
:102AD000084400F019FB641CF3E7DFF8D80100F0AC
:102AE00013FBDFF8D40100F00FFBDFF80C0100F05E
:102AF0000BFBDFF8C80100F007FB3E4800F004FBC9
:102B0000DFF8B001DFF804110860DFF8AC01DFF88E
:102B1000B011086010BD00006C14002038B5DFF85B
:102B2000A401006800282BD0FFF74EFEDFF88C01CF
:102B30000068002801D1012400E00024FFF74CFECA
:102B4000002CECD100F035F9DFF87001C068C068E6
:102B50000500281D00F013FBDFF848010068401E47
:102B6000DFF840110860DFF85C010068401EDFF804
:102B70005411086000F03AF9280000F005F8CEE79B
:102B800031BD00004814002010B50400206B00F097
:102B900006FA200000F003FA10BDDFF87010096893
:102BA0000968002905D15FF0FF31DFF85820116076
:102BB00009E0DFF858100968C968C9680800416869
:102BC000DFF8402011607047DFF8FC100968002929
:102BD00002D10121080009E0DFF8F010096800299E
:102BE00002D10221080001E0002108007047000026
:102BF00004ED00E0F4130020CC1300206814002042
:102C0000A03400086414002054140020381400205C
:102C10003C1400205C140020F8B504000D0020488E
:102C2000076821480068001D00F0A9FA00280BD1B0
:102C30001D480068264909680122C06A12FA00F09E
:102C400031EA00002249086014F1010F08D1002D7B
:102C500006D015480068011D1E4800F067FA1BE009
:102C6000E0190600104800684660BE4207D20E48D0
:102C70000068011D1248006800F064FA0CE00A4880
:102C80000068011D1448006800F05CFA13480068F1
:102C9000864201D211480660F1BD000058140020A0
:102CA0004814002044140020341400201412002082
:102CB00004ED00E0A4130020B8130020E01300206E
:102CC0003C14002040140020501400206C140020FC
:102CD0004C140020F4130020381400206414002049
:102CE000001F5FF080730360001F4B085B000360F0
:102CF000001F0FF20D030360143802602038704784
:102D00005748006810F1010F07D0502080F3118858
:102D1000BFF34F8FBFF36F8FFEE7502080F3118812
:102D2000BFF34F8FBFF36F8FFEE700B583B04D4801
:102D300001780191FF21017001788DF800109DF854
:102D4000001011F05001484A11700721474A1160E4
:102D50009DF8001009060AD544490968491E434AEE
:102D600011609DF8001049008DF80010F0E73F4910
:102D7000096809023D4A11603C49096811F4E061A3
:102D80003A4A1160019901703948006850F47000A6
:102D9000374908603648006850F070403449086090
:102DA00000F051F800202E49086000F030FA0020B1
:102DB0000EBD502080F31188BFF34F8FBFF36F8F8C
:102DC00027480068401C26490860254800680128FB
:102DD0000BD128480068000607D0502080F31188E6
:102DE000BFF34F8FBFF36F8FFEE770471C4800683B
:102DF000002807D1502080F31188BFF34F8FBFF315
:102E00006F8FFEE716480068401E15490860144899
:102E10000068002802D1002080F31188704780B537
:102E2000502080F31188BFF34F8FBFF36F8FFFF7F0
:102E300057FD002803D05FF080500E490860002045
:102E400080F3118801BD0C4800684FF47A71B0FB23
:102E5000F1F0401E094908600720094908607047E1
:102E60000000002000E400E0701400202C1400207A
:102E700020ED00E004ED00E00400002014E000E09C
:102E800010E000E02DE9F04104005FF00008FFF7DA
:102E90009BFC96480068002801D100F0BDF89448DA
:102EA000006804426AD1002C15D0924800680419C9
:102EB00014F0070F0FD014F1080014F00701441AA2
:102EC00014F0070F07D0502080F31188BFF34F8F05
:102ED000BFF36F8FFEE7002C50D087480068A042F8
:102EE0004CD3864806008548006805006868A04203
:102EF00005D22868002802D02E002D68F6E77B480E
:102F0000006885423AD030687A49096808448046AA
:102F1000286830607748006840006968091B88426B
:102F200015D205EB0400070017F00700002807D0B2
:102F3000502080F31188BFF34F8FBFF36F8FFEE7F0
:102F40006868001B78606C60380000F09CF86A4884
:102F500000686968401A68490860674800686849FD
:102F60000968884203D26448006865490860686857
:102F70005F4909680843686000202860FFF72CFC5F
:102F800018F00700002807D0502080F31188BFF305
:102F90004F8FBFF36F8FFEE74046BDE8F08170B5FD
:102FA00004002600002C36D05248006840420644F7
:102FB000350068684E490968084207D1502080F3FF
:102FC0001188BFF34F8FBFF36F8FFEE7286800288B
:102FD00007D0502080F31188BFF34F8FBFF36F8F5E
:102FE000FEE7686842490968084214D0286800284A
:102FF00011D168683E49096888436860FFF7E4FBBF
:103000003D480068696808183B490860280000F0DE
:103010003AF8FFF7E1FB70BD30B44FF44063394C30
:10302000220012F0070F05D0D21DD208D2009B1A41
:10303000344CE3181100314C216000242F4D6C609A
:103040005C1822002B4C2468121BD208D200274C9B
:1030500022600024254D2D686C600024234D2D68CE
:103060002C600800141A4460204C246804604468F2
:10307000234D2C604468204D2C605FF000441C4DB3
:103080002C6030BC704710B41C4B1A00136883428C
:1030900001D21268FAE7110053680B44834204D14D
:1030A00053684468E31853601000010043680B4400
:1030B0001468A34211D113680C4C2468A34208D0B1
:1030C000436814686468E318436013681B6803600E
:1030D00005E0064B1B68036001E013680360824251
:1030E00000D0106010BC70470000000010140020D9
:1030F0001C140020A8340008141400200814002018
:10310000181400201004002010F1080141605FF045
:10311000FF31816010F10801C16010F10801016107
:1031200000210160704700210161704742684A60D8
:1031300093688B60936859609160086103685B1CB9
:103140000360704710B40B6813F1010F02D10469DA
:10315000220008E010F10804220054682468A34209
:1031600001D35268F9E754684C604C68A1608A60EA
:10317000516008610468641C046010BC7047010061
:1031800008698A684B689A604A688B685A60426826
:103190008A4201D18A68426000220A610268521E96
:1031A0000260006870470000EFF30980BFF36F8F83
:1031B0001D4B1A6820E9F00F106008B54FF0500061
:1031C00080F31188BFF34F8FBFF36F8FFFF71DFCA4
:1031D0004FF0000080F31188BDE8084019680868C6
:1031E000B0E8F00F80F30988BFF36F8F70470E4B84
:1031F00019680868B0E8F00F80F30988BFF36F8F93
:103200004FF0000080F311884EF00D0E7047074814
:103210000068006880F3088862B661B6BFF34F8F1C
:10322000BFF36F8F00DF00003414002008ED00E0D2
:103230001348006850F00100114908601148006807
:10324000114908400F4908600D4800680F490840BF
:103250000B4908600A48006830F48020084908607B
:103260000848006830F4FE00064908605FF41F005B
:10327000074908605FF00060064908607047000079
:1032800000100240041002400000FFF8FFFFF6FEAD
:103290000810024008ED00E07047FEE7FEE7FEE799
:1032A000FEE7704780B5FFF7CEF801BD80B50C484A
:1032B000FDF7EAF801BD80B50948FDF7E5F801BD65
:1032C00080B50748FDF7E0F801BD80B50448FDF77B
:1032D000DBF801BD80B50348FEF7F6FB01BD000039
:1032E000A01200202413002019E050F8041BCB0783
:1032F00044BFA9F101035918121F0023042A41F801
:10330000043BF9D25FEA827C0B4604D54FF0000CF7
:10331000A1F800C09B1CD10744BF0021197050F8D0
:10332000042B002AE1D17047463A5C4E6577205362
:10333000616C652053797374656D5C436F64655C83
:103340005A417869735C436F72655C5372635C6D5C
:1033500061696E2E6300000010B450F8041B79B14F
:103360000268436802440830DC0744BFA9F1010445
:10337000E31852F8044B43F8044B091FF9D1ECE76A
:1033800010BC704710B5074979441831064C7C448D
:10339000163404E00A68081D114488470146A1421A
:1033A000F8D110BD08000000280000003DFFFFFF1D
:1033B0006410000010040020000000009DFFFFFFCB
:1033C0000C000000C0000000000000200000000011
:1033D00000F00BF8002801D0FFF7D4FF0020C04612
:1033E000C046FEF7FFFD00F002F80120704700F034
:1033F00001B800000746384600F002F8FBE700007D
:1034000080B5C046C046024A11001820ABBEFBE79B
:10341000260002006C3400085D2300080000000054
:10342000000000008000000090340008092300081C
:10343000030000000000000000010000020304057A
:10344000060708090A0B0C0D0E0F101000000000F3
:103450000000000001020304060708090148804734
:10346000014800473132000879340008646566611C
:10347000756C745461736B00C046C046C046C0464C
:10348000FFF7A6FFAAAAAAAA00A24A040100000008
:103490007461736B3100000000000000010203043E
:1034A00049444C450000000008000000FFF7FEBF43
:1034B000FFF7FEBFFFF7FEBFFFF7FEBFFFF7FEBF40
:1034C000FFF7FEBFFFF7FEBFFFF7FEBFFFF7FEBF30
:1034D000FFF7FEBFFFF7FEBFFFF7FEBFFFF7FEBF20
:1034E000FFF7FEBFFFF7FEBFFFF7FEBFFFF7FEBF10
:1034F000FFF7FEBFFFF7FEBFFFF7FEBFFFF7FEBF00
:10350000FFF7FEBFFFF7FEBFFFF7FEBFFFF7FEBFEF
:10351000FFF7FEBFFFF7FEBFFFF7FEBFFFF7FEBFDF
:10352000FFF7FEBFFFF7FEBFFFF7FEBFFFF7FEBFCF
:10353000FFF7FEBFFFF7FEBFFFF7FEBFFFF7FEBFBF
:04354000FFF7FEBFD4
:040000050800347942
:00000001FF
